:0200000001FD00
:03000300021AEBF3
:03001300021B6766
:03002300021A3C82
:0300330002171899
:20005B0002189275D84053D9BF75D90175DA1175DE0175FA0175FC0175FEC8227588457568
:20007B008920758E08758DE6227598102275A14075F80175A202227585047584002275A437
:20009B00FC75A5C875A61175A70D75AEFF75D4CF75D5FF75D6AC75DFFF75E10375E2C122B2
:2000BB0043868375B69075B980E4D5E0FD43B9C0E5B930E5FB75A90375B2832275B84075A1
:2000DB00E61075F61075A8052212005E1200771200841200881200921200991200BB1200F9
:2000FB00D72275816353D9BF75D90012197D11E4121B80121AD71215CF1217F8D2AF12194A
:20011B008CC2AF758163C2B0C283C282D2AF90000078391218E4783D12196F121A314000B7
:20013B0012088512084812083231B8314A80F1300929206E26B1C0401A300A1F100B0831F4
:20015B00A4C209C2768014D20CE552B1D6E551B1D680E2C0E0F1FAF1D3D0E030072A206EA0
:20017B00277F0010030710051FDFF8801BE5351219FFE53715377004E53815387006C20339
:20019B00C2078004F1D380D922200C10D20CE55265427006E55165416002D26322C3E519F4
:2001BB00951A601175830E851A82E0F5F00583E012092B051A121AB970024161121A76B4FC
:2001DB00520302083DB4720302083DB44902C1D0B46902C1D0B430047400E1A0B43104747E
:2001FB0001E1A0B432047402E1A0B433047403E1A0B434047404E1A0B435047405E1A0B41E
:20021B0036047406E1A0B437047407E1A0B438047408E1A0B439047409E1A0B44102A1E34C
:20023B00B46102A1E3B447028149B467028149B45A028055B47A028050B4580261D2B47808
:20025B000261D2121A9D22C20510050280FB22F5F0B16874015193519351935193519351B0
:20027B00935193519374025193519351935193519351935193519322C0E0C0F051BD74017D
:20029B00B172D0F0D0E0240222121A315B00D2B0E533516A5162120F3B121A315D00120878
:2002BB006F22C0E0E4B172E5F0B172E4B172D0E0B1727401B172220000000000000000005F
:2002DB00000000000000000000000000000000000000000000000000000000000000000003
:2002FB000000000000000000000000000000000000000000000000000000000000000000E3
:20031B000000000000000000000000000000000000000000000000000000000000000000C2
:20033B000000000000000000000000000000000000000000000000000000000000000000A2
:20035B00000000000000000000000000000000000000000000000000000000000000000082
:20037B00000000000000000000000000000000000000000000000000000000000000000062
:20039B0000000000000000000000000000000000000000000000000000011600F009100022
:2003BB000020202020202020202000006120202020202020000000D2B0B172121A317B0044
:2003DB005162121A31237D7B00B1689002D27D80E493F5F0A3E493A3C5F0B172DDF2740920
:2003FB0091404009121A314552524F5200121A317D0012086F22F5F07D12C0F0B1B274025F
:20041B001215D01215C8120D92D0F0E547B5F00AE545B533051215CFD322C0F0D0F0DDDA66
:20043B001215CFC32291115004120E32D322121A313E00E5811219FF121A313E00D283125C
:20045B00177574032557F55774001217D474A11217D474A11217D474A11217D474FB121777
:20047B00D474621217D4746F1217D4746F1217D474741217D474201217D474201217D4747F
:20049B00201217D474201217D474201217D41217C51217F8C283B15C121A313C00121A8C50
:2004BB0022C282C283121A313E00C0AAC0D075D00875AA0DD283740312166474001216B9BB
:2004DB0074A11216B974A11216B974A11216B974FB1216B974621216B9746F1216B9746F71
:2004FB001216B974741216B974201216B912176A74201216B974201216B974201216B9745C
:20051B00201216B97D1474551216B9DDF91216EDD0D0D0AAC28312176740FB121A313C00D6
:20053B0022B1C0500AB14EB14EB14EB14E80F2121A8C22C0E054032430121A9DD0E00303A1
:20055B0022B1C050072430121A9D80F52285434422E543C3954422C082C08375830B85437E
:20057B0082F00583C5F0F0C5F00543D083D08222B16CC36017C082C08375830C854482E0F2
:20059B00F5F01583E00544D083D082D322B18B50051219FF80F722C2AF850809D2AF22E51D
:2005BB0008C3950922B1BAC36010C0AA75AA0DA809E205091212EDD0AAD322C0AA75AA0DAA
:2005DB00A808F20508D0AA22121A8C121A312300D2B02080FD121A312300121A31494E44A6
:2005FB0045582300121A8C7F10CFC0E0CF74021215D01215C8D17FC0F0121A312000E5528B
:20061B001219FFE5511219FF121A313D00E5421219FFE5411219FF121A8CD0E02403121544
:20063B00D01215C4D17F121A312000E5521219FFE5511219FF121A313D00E5421219FFE586
:20065B00411219FF121A8CCFD0E0CFDF9C1215CF121A31230012086F22300F03301105B139
:20067B00C0400522B1C050F1C0E01219FFD0F080F3121A8C121A315100D2B02080FD22C220
:20069B00AF750800750900752A03D2AFC0AA75AA0D90F9C0E508650960FAA809E2121A9D82
:2006BB000509A3E58370ED90FFFF2080E7D0AA121A31710022121A316900121A8C121A314F
:2006DB005354202E2E2E2E2E2E2E2E2E2E2000E5361219E7121A8C121A3143505359532058
:2006FB002E2E2E2E2E2E2E2000E52E1219E7121A8C121A3143505359534348202E2E2E2E4E
:20071B002E20007805E21219E7121A8C121A315354582E5550434D44202E2E2E20007430D6
:20073B00A20092E0121A9D121A8C121A315354582E555054524B202E2E2E20007430A201D8
:20075B0092E0121A9D121A8C121A315354582E5550534543202E2E2E20007430A20292E0FD
:20077B00121A9D121A8C121A315354582E5550445441202E2E2E20007430A20392E0121A24
:20079B009D121A8C22F535752F181208B0F1FE227533C0753500752F181208B0F1FEF1BCD2
:2007BB00221208852060FA22A271400B7805E2A277F52E9277D27122D26ED2767805E52E42
:2007DB00F222C0D0C0AA75D01075AA10F1D3D0AAD0D0227801F2227802F2227803E222785A
:2007FB0003F2227800A2B6B39266E52C207F1CA2B0925D92E5A25C92E4A2B7B3925A92E2E8
:20081B00A280B3925992E1F536F222C2E6A25B92E5A27692E180F010040F20920BC2B030B2
:20083B0092FD121A9902011C221207FE22305E1930A71E783D1219485019C2B01215CF71C9
:20085B001DC25E7429121A9D2220A7077428121A9D116F22783D900032121919D25E22785E
:20087B003D9009C4121919D25E22306005E52FC421601207C3300105C20111E6223002051A
:20089B00C20211FD22200708300305C20331142230001FC200753000753100753200C25E93
:2008BB00C263C264C267C262D260C2771207D711CF220022C0E0121A8C7443121A9D743A80
:2008DB00121A9DE52F1219E7D0E022C0E0121A8C7454121A9D743A121A9DE5331219FFD0CA
:2008FB00E022C0E0121A8C7453121A9D743A121A9DE5341219FFD0E022C0E0121A8C744457
:20091B00121A9D743A121A9DE5351219FFD0E022C0E0C0F0121A8C745230F3027457121A7C
:20093B009DD0E0C4C0E05402034430121A9DD0E054014430121A9D743A121A9D1207F6D0BD
:20095B00E01219FF22540F23232480C0E07409C0E022000000000000000000000000000024
:20097B000000000000803E222280602222410E2222410E222241232222412322224130222D
:20099B002241302222417922224179222241AA222241AA2222413D222241FC222241CB229A
:2009BB002241D32222E530714F205F0FC287C20D75327F75337F7453121A9D30B703300828
:2009DB0009913D711D7445121A9D22E530714F205F16A27C920DC3E533953592875002F4C8
:2009FB0004F5327473121A9D3008077465121A9D711D22E530714F205F0CA27C920D7532AC
:200A1B0001747A121A9D80E0E530714F205F04D28780E780D3E530714F205F04C28780DA3D
:200A3B0080C6E5309158205F0E742F121A9DD2B074021215D0D20B300823745C121A9D712D
:200A5B000F600E711F742D121A9D745C121A9D800C742B121A9D745C121A9D711D22E53019
:200A7B009158205F0F742F121A9DD2B074021215D0753004300817745C121A9D7104600221
:200A9B007402242B121A9D745C121A9D711D22E5309158205F0F745B121A9DD2B074021236
:200ABB0015D075300C300807745D121A9D711D22743F121A9D711D22E52F30E308121A3144
:200ADB004800711D22E5309158205F0A7457121A9DD2B07530083008077477121A9D711D38
:200AFB00227449121A9D711F22E4A26333A26433A2673322E4C333A26433A2673322220536
:200B1B003022D277C2601207FE1207D7753000117A22F53022E52F54039005DC600F14906E
:200B3B000BB86009149013886003901D4C220531C3953122540F23232480C0E0740BC0E0C4
:200B5B00220000000000000000000000000000000000000000000000000000000000000058
:200B7B000000000000803E222280652222810A22228115222281292222813B2222813B22BA
:200B9B0022813B2222813B2222813B2222813B2222813B2222813B2222813B2222813B223A
:200BBB0022807D2222C25FC208A2B092F0A27B92E092B065F05401C0E01207FE7839D0E065
:200BDB009000006001A3121919745A121A9D611AD25F78391219485033E53271495009749A
:200BFB002D121A9DD2086127742B121A9D611A713078391218E4D286611A783912194850F8
:200C1B000B713078391218E4C286611A611978391219485009300D02913D7401612D61190A
:200C3B00611D740120870A74FF20B705E4F533F532253304600114F5331207EE22540F23CB
:200C5B00232480C0E0740CC0E02200000000000000000000000000000000000000000000D0
:200C7B000000000000803E22228052222280542222A190222280772222A1902222A19022B1
:200C9B0022A1902222A1522222A1582222A15C2222A1612222A1732222A1772222A17B22B5
:200CBB0022A18A2222C25FC208C20AC20BC20CC211C20978399003E8121919611AD25FD2AA
:200CDB0009611A300916101119783912194850107425121A9DC2091215CFD264D2086127AD
:200CFB0061197421121A9D1215CFD20A6119D25F101109783912194840D66119742A121ADC
:200D1B009DB192702DE5456533600280C3E547B53420E54824031215D0E5451219FFE547D4
:200D3B001219FFE5481219FF742A121A9DE4712D80811205B26119D25FC205611AD1D9715C
:200D5B001A120262711AF13B8006100503200706C207D20861276119D25F611A611A81EB2E
:200D7B00E534120411400280F5B1A8D2086127B1A8D2086127611D1205C0F5451205C0F590
:200D9B00461205C0F5471205C0F548E422D2831217757D16744E1217D4DDF97D0CE4121714
:200DBB00D4DDFA7D03055774A11217D4DDF774FB1217D47541B47542CD6542F5429010E6ED
:200DDB00936541C542058393F5411207DD75F0017D001210BC503D1217E650356542F542B1
:200DFB009010E6936541C542058393F541DDE315F0E5F070DDE5421217E65015E5411217F0
:200E1B00E6500E7D0A744E1217E65005DDF702102602101A021020D2831217757D10744E1A
:200E3B001217D4DDF97D0C74001217D4DDF91212E67D03055774A11217E650461212EDDD66
:200E5B00F274FB1217E6503A1212ED12058B50141217E6502D1212EDE5F01217E650231260
:200E7B0012ED80E7E5421217E65017E5411217E65010744E1217E65009744E1217E6500272
:200E9B0080057426121A9D1217C51217F8C283221205681207DD7D7F1210BC5048F5F012FB
:200EBB0010BC5041C5F0120572DDED1210BC5035F5F01210D7502EC5F012057280271205F7
:200EDB00681207DD7D001210C7501AB44E061DED601380F2B4F5028013B4F6028034B4F789
:200EFB0002803B80DFC203C26EC276221210C750F4B4F50280F6B4FE12E41205727D04125A
:200F1B0010C750E1120572DDF680B9740112057280B21210C750CEB4F60280F680A680A476
:200F3B00D2831217757D0A744E1217D4DDF912058B5004703980647D01744EF17710050245
:200F5B0080F51217C180057426121A9D1217C51217F8C28322E5572DF55774A11217E65090
:200F7B00071212EDDDF60D22D0E0D0E080D97D16744EF1777D0C7400F1771212E67D03F1E6
:200F9B007074FBF1777D007400F177E5421217E650B5E5411217E650AE80937D32744EF1B3
:200FBB00777D0C7400F1771212E67D03F17074FEF17712058BF17712058BF17712058BF1CE
:200FDB007712058BF17780C3121A99D2831217751207DD1210A0502D1217D41210A0502511
:200FFB00B4F5028033B4F60474C2800DB4F70AE542F1E6500AE5418000F1E640DE80DC748F
:20101B0026121A9DE47002F1C1C207C203C26EC276F1C5F1F8C2832274A1F1E650E1055749
:20103B0011A050E1B4F50280EFF1E650D275F0017D0430E00FE5495403244583F5F0C2F78B
:20105B005480FDEF7541B47542CD6542F5429010E6936541C542058393F54111A050A6F13A
:20107B00E6509CF5496542F5429010E6936541C542058393F541DDE315F0E5F070DD020F58
:20109B00F6810102047F0010050910030BDFF874018001E4C203C322C0351207DDD0E0D333
:2010BB00227F001003F2DFFB740180E8AF0A0F0F1003E5E50A6F70F8740180D87F001003C4
:2010DB0006DFFB740180CDE535D32200102030405060708191A1B1C1D1E1F1120232225202
:2010FB004272629383B3A3D3C3F3E32434041464744454A5B58595E5F5C5D5362616067631
:20111B00665646B7A79787F7E7D7C74858687808182838C9D9E9F98999A9B95A4A7A6A1A10
:20113B000A3A2ADBCBFBEB9B8BBBAB6C7C4C5C2C3C0C1CEDFDCDDDADBD8D9D7E6E5E4E3EF0
:20115B002E1E0EFFEFDFCFBFAF9F8F9181B1A1D1C1F1E110003020504070608393A3B3C32B
:20117B00D3E3F30212223242526272B5A59585F5E5D5C53424140474645444A7B78797E7B0
:20119B00F7C7D72636061666764656D9C9F9E99989B9A95848786818083828CBDBEBFB8B90
:2011BB009BABBB4A5A6A7A0A1A2A3AFDEDDDCDBDAD9D8D7C6C5C4C3C2C1C0CEFFFCFDFAF70
:2011DB00BF8F9F6E7E4E5E2E3E0E1E0021426384A5C6E708294A6B8CADCEEF31107352B5A4
:2011FB0094F7D639187B5ABD9CFFDE62432001E6C7A4856A4B2809EECFAC8D53721130D7C2
:20121B00F695B45B7A1938DFFE9DBCC4E586A740610223CCED8EAF48690A2BF5D4B7967119
:20123B00503312FDDCBF9E79583B1AA687E4C522036041AE8FECCD2A0B684997B6D5F41301
:20125B003251709FBEDDFC1B3A597888A9CAEB0C2D4E6F80A1C2E304254667B998FBDA3D49
:20127B001C7F5EB190F3D235147756EACBA8896E4F2C0DE2C3A08166472405DBFA99B85F41
:20129B007E1D3CD3F291B0577615344C6D0E2FC8E98AAB44650627C0E182A37D5C3F1EF999
:2012BB00D8BB9A75543716F1D0B3922E0F6C4DAA8BE8C926076445A283E0C11F3E5D7C9B81
:2012DB00BAD9F81736557493B2D1F07541FF7542FF22C0E0C082C0836542F5429010E693A3
:2012FB006541C542058393F541D083D082D0E0226047B4021BC3E52933B212201205403C6B
:20131B00F52922500475290322D333402FF52922401DC3E529334008A21233401FF5292277
:20133B0092D5C529A212740292E0C529A2D522A212E529334006F52922C212C37529012247
:06135B00752903D21222E5
:20140000E52AD333C3338016E52AC333D333800EE52AD333D3338006E52AC333C3335004A2
:20142000F2087403F52A0218A8E54A7051300E75714A5022201022C54E7028C54EF208E59B
:201440004F9400F54FE5509400F550454F7007D210F5527551FF0218A8C551C55260F7D246
:2014600011803F146008C54EB54C370218A8C54EB54D2FD20FE54F455060E40218A8154AC0
:201480000218A8D20E715B0218A8E54A7014300EF27110809DE54A7009300E09712D8092FC
:2014A000F208854B4AC20EC20FC210754E0485534F85545071540218A8FFFFFFFF0000000B
:2014C00018181818181818181818181800000000000000000808080808080808101010106C
:2014E00010101010181818181818181818181818181818181818181818181818181818180C
:20150000A2A2A2A2A2A2A2A2A2A2A2A229292929292929298A8A8A8A8A8A8A8A9595959547
:2015200095959595A2A2A2A2A2A2A2A2A2A2A2A2A2A2A2A2A2A2A2A2A2A2A2A2A2A2A2A29F
:20154000A2A2A2A2A2A2A2A2A2A2A2A229292929292929298A8A8A8A8A8A8A8A9595959507
:2015600095959595A2A2A2A2A2A2A2A2A2A2A2A2A2A2A2A2A2A2A2A2A2A2A2A2A2A2A2A25F
:20158000A2A2A2A2A2A2A2A2A2A2A2A229292929292929298A8A8A8A8A8A8A8A95959595C7
:2015A00095959595A2A2A2A2A2A2A2A2A2A2A2A2A2A2A2A2A2A2A2A2A2A2A2A2A2A2A2A21F
:2015C000FFFFFFFF300FFD223011FDC211D322E4C082C08375DA006063754B5075530075E3
:2015E0005400754CC2754DFC75413E7542CC146050754B50755304755400754CA1754DFE54
:201600007541307542B2146038754B50755380755400754CA1754DFB7541957542E2146037
:201620002075530075540114601775530075540214600E755300755404146005D083D082A5
:2016400022750C40854B4AC20EC20F754E0485534F85545071541205B2C210C211C2D87593
:20166000DA1180D8C213755500755680F5577558802213C55813C55813E55813F55850051D
:20168000F2087558802230130A40047404800C7405800840047402800274014555F5559224
:2016A00013D1A3E555C333F555500BE55620E702D17275560022055622F529A24FD186A2D5
:2016C0004ED186A24DD186A24CD186A24BD186A24AD186A249D186A248D186E529B4A10C61
:2016E000E55760081557E5556480F55522E5556004D1A380F8E558B480028005E4D1725057
:20170000FB22E55A700CD28275A30004F55BF559804EC282C2AE8048C0E0C0D0C0AA75D0BA
:20172000080000C2FFE55960D914600CF559D0AAD0D075A300D0E03275AA0D75A380E55B83
:2017400014700AE8696017E309F55A7404F55BE55A0303C55A540370048508091404F55905
:20176000D0AAD0D0D0E032A2AE22755900755A00D2FFD2AE2274FE55D9F5D985D05D85AA9C
:201780005E75D00875AA0D755C01755500755680755700752900C213C21422D2141218073D
:2017A000755F10C0A8C2AFE5F92410F5FDE435FAF5FEC2DC75DE49C2B3D2B2D0A822A214DF
:2017C0002285080922F1BE40FC855DD0855EAAC2B3C2B222FFC3E89954C070F9EFF2083021
:2017E000140122F19B22FFC3E89954C070F9EFF208301402D322C32275DE00755C017401A1
:2018000045D9F5D922C2B3E55C601B14702CE529B4A10CE55760081557E5556480F555E80A
:20182000697011755C00E5556003E4802975DE00C214C322E309F5297408F55CE52923F5B8
:2018400029A21392E1A2E09213540330E10464068004700274024555C333400B055633F570
:2018600055400B055680A023F55574018001E4C556D322D2B311055005241283F55F25FDD7
:20188000F5FDE435FEF5FED0AAD0D0D0E03220101820C0E0C0D075D008C0AA75AA0D10DCE9
:2018A000D2C082C08310D818A20F10DF0BD083D082D0AAD0D0D0E0320AEA70020BEB80EDBC
:2018C000E5FB9EAEFB543F4C9014C093C0E07414C0E022C2AF85F96085FA61850A62850B71
:2018E00063D2AF2211D375F004E5F0C582A4C582C5F0C583A42583F583E435F0F5F0E5609A
:201900002582F608E5613583F608E56235F0F608E5633400F61818182211D375F010E5F0B2
:20192000C582A4C582C5F0C583A42583F583E435F0F5F0A66008E5612582F608E5623583CE
:20194000F608E56335F080CC11D3D3E6956008E6956108E6956208E69563A2E780B7C0E02F
:20196000E6084608460846C36001D3D0E080A6C0E0E4F608F608F608F6D0E08098C2B0C25A
:2019800086C287C290C291C2B2C2B322752E00C276D277D271C260D261C262C263C264C2DB
:2019A00065C266C267C25B317D753000753100753200753300753400753500E5331207EE9A
:2019C000E5341207F2E5351207FAC25EC25FC2081207FE1207D7C200C201C202C203C207CD
:2019E000C205C204C20922C8C0E0C8780823C0E054014430519DD0E0D8F3C8D0E0C8225115
:201A000008519DE5F0519D22F5F0540F240983C5F0C4540F240183223031323334353637B1
:201A20003839414243444546E493A3600E519D80F7D083D0825128C082C08322C0E0C0D0BE
:201A400075D000C0AA309912C299C215C3EB99600975AA01E3F59909D21530981275AA00A0
:201A6000C3E89A04700118E599F208C29880EBD0AAD0D0D0E03251B960FCC082C083758378
:201A800000850282E00502D083D08222C0E0740D519D740A519DD0E0222015FD2251ADC22E
:201AA000AC51C5201504D299D215D2AC22C0E051BFB4FA0050F9D0E022C3E500950222C39C
:201AC000E503950122C082C083758301850382F00503D083D08222C2ACC299C298E4F50023
:201AE000F503F502F501C215D2AC22C0E0C0D075D018C0AA75AA107804E2F52D206B19D070
:201B0000AAD0D0D0E03218E215AAF3E52D15AAF309D0AAD0D0D0E03218E2206C1A206D2ACD
:201B200020600DF52FC271D200E536D2E07800F2D0AAD0D0D0E032206D207801F533F2C2BA
:201B400071D201D0AAD0D0D0E0327802F534F2C271D202D0AAD0D0D0E032F535C271D2037B
:201B6000D0AAD0D0D0E032C0E0C0D0E5E4D204A2E792064002D2056480F5E4D0D0D0E03221
:201B800075D018780479007A00750800750900750A00750B00752A03750C4075D01075AAA8
:051BA000101215CF2218
:00000001FF
